:020000040800F2
:10000000C01300205D1900081747000849190008AF
:1000100049190008491900084919000800000000A2
:100020000000000000000000000000001D1A000891
:100030004919000800000000BD19000855250008F6
:10004000A51B0008A51B0008A51B0008A51B000890
:10005000A51B0008A51B0008A51B0008A51B000880
:10006000A51B0008A51B0008A51B0008A51B000870
:10007000A51B0008A51B0008A51B0008A51B000860
:10008000A51B0008A51B0008A51B0008A51B000850
:10009000A51B0008A51B0008A51B0008A51B000840
:1000A000A51B0008A51B0008A51B0008A51B000830
:1000B000A51B0008A51B0008A51B0008A51B000820
:1000C000A51B0008A51B0008A51B0008A51B000810
:1000D000A51B0008A51B0008A51B0008A51B000800
:1000E000A51B0008A51B0008A51B0008A51B0008F0
:1000F000A51B0008A51B0008A51B0008A51B0008E0
:10010000A51B0008A51B0008A51B0008A51B0008CF
:10011000A51B0008A51B0008A51B0008A51B0008BF
:10012000A51B0008A51B0008A51B0008A51B0008AF
:10013000A51B0008A51B0008A51B0008A51B00089F
:10014000A51B0008A51B0008A51B0008A51B00088F
:10015000A51B0008A51B0008A51B0008A51B00087F
:10016000A51B0008A51B0008A51B0008A51B00086F
:10017000A51B0008A51B0008A51B0008A51B00085F
:08018000A51B0008A51B0008E7
:1001880053B94AB9002908BF00281CBF4FF0FF31F6
:100198004FF0FF3000F064BDADF1080C6DE904CEFE
:1001A80000F06AFDDDF804E0DDE9022304B07047E1
:1001B80003685A004CBF43F0004323F0004318443F
:1001C80070472DE9F0470646174641B3013988467E
:1001D8004FF0000909EB080404EBD474641006EB33
:1001E800C4052846FFF7E4FFA1424FEAC40A04D138
:1001F800B84204D82846BDE8F087B84204D9A145DA
:100208000DD004F1FF38E5E70AF108003044FFF7A4
:10021800CFFF0138B842EDD204F10109DAE7002531
:10022800E8E7012806D0022806D00028034818BFAE
:100238000020704702487047024870474508000888
:10024800490800084D0800081F4B37B504468D1EA5
:100258004BB101A92846AFF3008048B90023092013
:10026800236103B030BD1948194B1B1ADB100193E9
:1002780001992A46FFF7A5FF01460028EED0FFF7AF
:1002880097FF4B68A064012B1AD0002B01F10400E2
:1002980010DBFFF78DFF0023C4E913030368002B6D
:1002A8000ADAC3F30360FFF7BCFF03460028D5D082
:1002B8000020D5E70123EFE7FFF77AFF0346F7E7CA
:1002C80000230520CCE700BF00000000EC56000822
:1002D800745800080368DA0710B5044605D49B076C
:1002E80000F1480018D500F0F9FB2368590703D43A
:1002F80004F1D00000F0FAFB23681A0703D404F5D0
:10030800A87000F0FBFB2368DB0608D404F5E8704E
:10031800BDE8104000F036BC00F0D8FBE5E710BDA2
:10032800092070470346006800B1184470477047B9
:1003380070B505460C46216C2846FFF785FF064632
:1003480008B101F0A9FD236C6B6122462B6929468F
:10035800012098470828EED00728F2D13046216CB2
:10036800FFF7E5FF201D00F0A5FB2DE9F0470C1D68
:10037800D0F80C90D0F818A0074616460FCCADF56B
:10038800727D03AD0FC50FCC0FC50FCC0FC594E818
:100398000F000DF1080885E80F000025C8F8005087
:1003A800D8F840103846FFF74FFF0936F6B2044632
:1003B80068BBD8F840307B614FF4F07241467AA8A8
:1003C80005F015F93B697AAA394630469847889B63
:1003D8000546C8F844303A46CDE9008A3B463146DE
:1003E8000120C847C0B9C4B94FF4F0727AA9404691
:1003F80005F0FDF8082D2646D2D0072D0CD1204651
:10040800D8F84010FFF793FF03A800F053FBD8F883
:10041800383046F01006DCE7092420460DF5727DD9
:10042800BDE8F087406C7047F0B5CB6B0B640D1DD1
:1004380006460F460FCDF9B001AC0FC40FCD0FC45F
:100448000FCD0FC495E80F0084E80F004FF0FF337D
:10045800009310993046FFF7F7FE78B933696A467A
:100468003146984708280446F3D06846FFF732FF1C
:10047800062C03D139463046FFF75AFF092079B0D8
:10048800F0BD10B48261DA6BC16010BC1A64194601
:1004980000226AE770B5C66843690B6404460D46D6
:1004A80026B10122FFF761FF01F0F6FC03690A4655
:1004B800014602209847072805D00828F4D1294684
:1004C8002046FFF735FF3046296CFFF730FF281D1F
:1004D80000F0F0FAC26802B9A6E7CA6B0A64002203
:1004E80043E77047836801460BB1012018477047FE
:1004F800012910B50446084605D005D9C81E0128AB
:100508008CBF0220012010BD43B90F2A06D804EB86
:100518008204029A616811601846F4E70220F2E743
:100528001FB503AB009300230A461946FFF7E0FF07
:10053800039805B05DF804FB012910B50446084688
:1005480005D005D9C81E01288CBF0220012010BD86
:1005580043B90F2A06D8029904EB8204096861603E
:100568001846F4E70220F2E71FB503AB0093002317
:1005780003920A461946FFF7DFFF05B05DF804FB52
:10058800F0B5D36B1364141D06460F460FCCADF5BA
:100598000F7D17AD0FC50FCC0FC50FCC0FC594E855
:1005A8000F0085E80F004FF0FF3316932699684631
:1005B800FFF74AFE90B90C2116A86A46FFF7D4FF48
:1005C800394616A8B04748B9049B16AA69460820B8
:1005D80098470528044602D00928E7D1092416A817
:1005E800FFF778FE20460DF50F7DF0BD2DE9F04FA1
:1005F800CD6C87B0174655F8042B04950C4600F0CF
:1006080003099A463BBB12028DF815300392032367
:100618008DF81430236DB9F1020F08BFA56B13F0E4
:10062800010322D100F0080800932B6843BB03A9FB
:10063800384600F096FC002840F0FB80009BDBB1B8
:100648000F213846FFF76CFF0E2102463846FFF7A8
:100658008BFF794A55E0130C8DF815301204DBB284
:1006680005EB830503920223D2E703A9384600F07D
:1006780078FC002840F0DD80082007B0BDE8F08F46
:10068800BAF1020F0CBFD5F804B0B5F802B0A26CED
:1006980018BF2B8801930CBF05F108062E1D0F21EA
:1006A8002BF0010538461544FFF73AFF8542019BB8
:1006B80029D823F001022A44824294BF0022012251
:1006C8004FEA4B0000F0020003F0010340EA030583
:1006D800012D1AD0022D5ED0002D40F0AA80351DC4
:1006E800B9F1000FA1D0002A9FD03046FFF760FD76
:1006F800A5630646204604F0B5FE002800F0998060
:1007080032460F213FE00022DAE7B9F1000F26D187
:10071800002A3DD073683268991C4FEAD27200F003
:10072800888004F158010133029109D0301DFFF788
:10073800F9FD02AB0146204603F0CEFA054638B370
:100748000D213846FFF7ECFE022D029B206202D1F4
:10075800E36204F12C03C4E9093606208DE70D2174
:100768003846FFF7DDFE256A854211D1A36A9E420D
:100778000ED13046FFF71CFD0F2102463846FFF721
:10078800F3FE224600213846FFF7EEFE072074E705
:1007980006F1080549E7356825F00045B9F1000F6D
:1007A8002AD1A2B1B8F1000F19D085B9CB4617E00C
:1007B8000BF1010B019B029306EB8B00FFF7B2FDD7
:1007C8000022014602AB204603F086FA58B133688E
:1007D800002B00DA0436013506EB850525E7C3460C
:1007E80004F158030193AB45E2D10D213846FFF7D8
:1007F80097FE029B2062AEE70D213846FFF790FE78
:10080800D4F820B08345E2D1A36A9E42DFD14FF0ED
:10081800000B0423C4E90BB3F318A56263633368C0
:100828005B4503DA681C06EB8000A3E7012300930D
:10083800D1E7092021E700BF813D00080023D5E664
:100848000123D3E60223D1E62DE9F0410546C2B0E3
:1008580014461E46042925D8DFE811F005001C00BF
:100868002400D6000401EEB9836B92B20121043052
:1008780001FA06F717421CBF53F8047B40F82670AC
:100888000136102EF4D1A60400D4AB63002042B088
:10089800BDE8F081012E4FEA124794B204D13B190A
:1008A800102B41D90220F2E7052EFBD107EB0408F3
:1008B800B8F1200FF6D80F2F4DD9002CE6D00368D9
:1008C8005807A04608D5284623F0040340F8D03B33
:1008D80000F010F90F2F48D9684600F00BF9AB6B00
:1008E800102F3A4642A938BF102201EBC2024FEA44
:1008F8004808A2F5C47208F1FF38101F4FEA8801B2
:1009080002EB88021C4654F804CB40F804CF82421C
:10091800F9D10A1D012E134417D00F2FAB636FD9DD
:10092800684600F0E3F8B1E7102FBBD00368DA0798
:1009380005D523F0030340F8483B00F0CBF820A886
:1009480000F0C8F8AB6B002C3FD10433AB6320A890
:1009580000F0BCF89AE7B8F1100F03682DD9DC074E
:10096800A8F1100842D45807ADD420A800F0BAF86E
:10097800C7F11004684600F0BDF8640020AAAB6B0C
:1009880002EBC702013C101FA10002EB84021C46C7
:1009980054F804CB40F804CF9042F9D10A1D13440F
:1009A800B8F1000F9CD1012ECFD00F2FAB633FF6CB
:1009B8006DAF20A800F092F868E7D9070DD420A8F9
:1009C80000F090F8AB6B002CF3D0640020AA02EB87
:1009D800C702013C4FF00008D5E723F0010343F0BC
:1009E800020340F8483B00F07DF8E8E723F00103F4
:1009F80043F0020340F8483B00F074F82B68B2E774
:100A080020A800F06BF88BE7032E7FF44BAF97B26A
:100A180007EB1244102C4FEA12463FF643AF036827
:100A2800190706D523F00803036000F5A87000F045
:100A380087F820A800F084F8AA6B20AB03EBC60364
:100A4800F900D41A03EBC707BB4203EB040005D136
:100A58000A44AA6320A800F051F817E7006843F891
:100A6800040BF1E7002E7FF41DAF102A3FF61AAFF2
:100A78000368DA0606D523F01003036000F5E87072
:100A880000F08AF820AE304600F086F8AB6B002202
:100A9800012101FA02F020421CBF53F8040B46F86A
:100AA80022000132042AF4D1AB63304600F06AF820
:100AB800ECE600BF00F1340191E838009C46A646F8
:100AC8004CF8045D90E8FF0FE54600BD90EC210B63
:100AD800704700BF80EC210B704700BF90EC200BE3
:100AE800704700BF80EC200B704700BFD0EC200B94
:100AF800704700BFC0EC200B704700BFF0EC02014C
:100B0800F0EC0211F0EC0221F0EC0231F0EC0241C1
:100B1800F0EC0251F0EC0261F0EC0271F0EC0281B1
:100B2800F0EC0291F0EC02A1F0EC02B1F0EC02C1A1
:100B3800F0EC02D1F0EC02E1F0EC02F1704700BFFA
:100B4800E0EC0201E0EC0211E0EC0221E0EC023101
:100B5800E0EC0241E0EC0251E0EC0261E0EC0271F1
:100B6800E0EC0281E0EC0291E0EC02A1E0EC02B1E1
:100B7800E0EC02C1E0EC02D1E0EC02E1E0EC02F1D1
:100B8800704700BFB0FC0181B0FC0191B0FC01A12D
:100B9800B0FC01B1704700BFA0FC0181A0FC01912D
:100BA800A0FC01A1A0FC01B1704700BFEC4600B554
:100BB8002DE900502DE9FF1F4FF000032DE90C002F
:100BC80001A9FFF731FCDDF840E012B0704700BF23
:100BD800EC4600B52DE900502DE9FF1F4FF000034A
:100BE8002DE90C0001A9FFF755FCDDF840E012B033
:100BF800704700BFEC4600B52DE900502DE9FF1FF6
:100C08004FF000032DE90C0001A9FFF763FCDDF8A4
:100C180040E012B0704700BFEC4600B52DE9005027
:100C28002DE9FF1F4FF000032DE90C0001ABFFF782
:100C380028FCDDF840E012B0704700BFEC4600B574
:100C48002DE900502DE9FF1F4FF000032DE90C009E
:100C580001AAFFF795FCDDF840E012B0704700BF2D
:100C6800704700BF10F8012B11F8013B012A28BF7B
:100C78009A42F7D0D01A70472DE9F04786468C463D
:100C88000846089E154674461946002B40F0C28057
:100C98008542B2FA82F245D94AB1C2F1200300FA7C
:100CA80002FC2EFA03F3954043EA0C0C94404FEAF9
:100CB800154EA8B2BCFBFEF8230C0EFB18CC08FBA3
:100CC80000F943EA0C43994528D9EB1808F1FF3796
:100CD80004D2994502D9A8F102072B44A3EB0903D2
:100CE800A4B2B3FBFEFC0EFB1C330CFB00F044EA81
:100CF8000344A04214D92C190CF1FF3304D2A042AA
:100D080002D9ACF102032C44241A43EA07401EB16D
:100D1800D440002334607360BDE8F0874746DDE7C0
:100D28006346F1E792BB431B01214FEA154EAFB270
:100D3800B3FBFEFC200C0EFB1C330CFB07F840EA4F
:100D48000343984562D9EB180CF1FF3004D298455B
:100D580002D9ACF102002B44A3EB0803A4B2B3FB05
:100D6800FEFC0EFB1C330CFB07F744EA0344A742C6
:100D78004ED92C190CF1FF3304D2A74202D9ACF199
:100D880002032C44E41B43EA0040C0E7C2F12003FD
:100D980020FA03F1954090402EFA03F303434FEAFB
:100DA800154EAFB2B1FBFEFC0EFB1C10190C0CFB70
:100DB80007F841EA0041884504FA02F422D9691883
:100DC8000CF1FF3004D2884502D9ACF10200294465
:100DD800A1EB08019BB2B1FBFEFC0EFB1C110CFB46
:100DE80007F743EA01439F420ED9EB180CF1FF3194
:100DF80004D29F4202D9ACF102012B44DB1B41EA29
:100E0800004192E76046E3E76146F7E76046A3E7FB
:100E18006346B7E7834206D916B9002108467BE73F
:100E2800C6E900E0F9E7B3FA83F78FB9834201D343
:100E3800724508D8BEEB020460EB030301209C4610
:100E48001EB9002168E73846FAE7C6E9004CF8E71A
:100E5800C7F1200CBB4022FA0CF41C432EFA0CF10B
:100E680020FA0CF3B84001434FEA14490EFA07F58B
:100E7800B3FBF9F81FFA84FE09FB18300B0C08FBCA
:100E88000EFA43EA00439A4502FA07F240D9E318FA
:100E980008F1FF3004D29A4502D9A8F10200234490
:100EA800A3EB0A0389B2B3FBF9F809FB183308FB73
:100EB8000EFE41EA03418E452CD9611808F1FF3333
:100EC80004D28E4502D9A8F10203214443EA004026
:100ED800A0FB0298A1EB0E014145CE46434602D342
:100EE80006D14D4504D2B9EB020E68EB0403013874
:100EF800002EA6D0B5EB0E0261EB030101FA0CFC43
:100F080022FA07F34CEA0303F940C6E9003198E7EF
:100F18004046C5E74346D9E7027A03467AB9427A9A
:100F280082B1013A42724268111D12680260416042
:100F380003221A721A68100E12021A607047013AD8
:100F4800D2B2F6E7B02070471FB503AB0093002379
:100F58000C221946FFF7CCFA039805B05DF804FB9C
:100F6800F2E72DE9F043054685B00E464FF000083C
:100F78003046FFF7D1FFB028044615D1B8F1000F6D
:100F88000ED103AC43460E22414600942846FFF793
:100F9800AFFA009443460F2241462846FFF7CCFAA1
:100FA800002005B0BDE8F08302061DD4002303AF7E
:100FB8004FEA8009194600970D222846FFF798FA4C
:100FC8005FFA89F9039B09F1040914F0400F14BF73
:100FD800A3EB09034B440393009700230D22194602
:100FE8002846FFF7A9FAC3E700F0F003802B18D1D1
:100FF80004023046FFF790FF0443B4F5004F01D1D7
:101008000920CEE724010023A2B219462846FFF79B
:101018001BFC0028F4D114F4004F18BF4FF001084E
:10102800A6E7902B0DD100F00D030D2BE8D003AFF0
:10103800002300F00F02009719462846FFF758FAD8
:10104800CAE7A02B13D1C34303F007034FF47F6211
:101058001A41030702F47F6201D542F4804200235B
:1010680019462846FFF7F0FB002881D0C8E7B02BC7
:1010780046D1B12808D13046FFF74EFF431EDBB2F8
:101088000E2B0246EBD9BBE7B22820D1002303ACD4
:101098000D22194600942846FFF72AFA3046FFF732
:1010A8003BFF022700F07F0110F08003039A01FA4A
:1010B80007F105D102F501720A44039200948DE705
:1010C8000A44304603920737FFF726FFEAE7B328BA
:1010D8000BD13046FFF720FF020300F00F0002F4A7
:1010E8007022013001230243BAE700F0FC03B42B5D
:1010F80086D000F007020132012342F40022AFE754
:10110800C02B44D1C6280AD13046FFF705FF020399
:1011180000F00F0002F4702201300323E3E7C72830
:101128000BD13046FFF7F8FE431EDBB20E2B02460A
:101138003FF666AF0023042193E700F0F803C02BC5
:1011480006D100F00F020132032342F4202287E780
:10115800C8280DD13046FFF7DFFE00F0F00200F09E
:101168000F0010320130052340EA0232012178E7EE
:10117800C9287FF445AF3046FFF7CEFE020300F0E2
:101188000F0002F47022013005230243EEE700F05D
:10119800F803D02B7FF434AF00F0070201320523A7
:1011A80042F40022E2E71FB503460846DA6C5368AA
:1011B80008321902019102921B0E032201A98DF82F
:1011C8000C208DF80D30FFF7CCFE05B05DF804FB60
:1011D80008B5FFF7C5FE806C08BD08B5FFF7C0FE6F
:1011E800C06CC379023300EB830008BD2DE9F041E0
:1011F800002486B0134E144FA04603AD0122314699
:101208002846CDF8088002F081FA95E807006B4679
:1012180003C31A7097F8E431022B6A460AD8591C9E
:1012280087F8E4110C2101FB037307CA03F5E07387
:1012380083E807000134032C06F10806DED106B066
:10124800BDE8F081185D00088000002008B5064B55
:10125800196811F0010106D101221A6003484FF400
:10126800007204F0D2F908BD30040020800000208C
:101278002DE9F041254F264C3E68BFF35B8F16F0F1
:10128800010605460ED1384602F074FA50B14FF403
:101298008033C4E9003638464FF47A73C4E902361D
:1012A80003F0C7FD05F5E0774FF001080026A278A6
:1012B80063789AB12BB1237813B16368A360267061
:1012C8006670E368A26801339342E36006D384F84A
:1012D8000180E660384603F0A1FD02E06378002B48
:1012E800F8D1A268A389B3EB520F0AD195F8E4317B
:1012F800012B8CBF0C20002000F5E070284403F07F
:101308008DFD00210A2003F01DFDD0E734040020E4
:101318003804002030B5024689B00A490023A1F1FB
:10132800800000240025CDE90323CDE90133CDE970
:101338000645054B00904FF4807201F0C1FC09B0DE
:1013480030BD00BF000100207912000808B5064B27
:10135800196811F0010106D101221A6003484FF4FF
:10136800007204F052F908BD30040020800000200B
:10137800014B1B68184700BF0000002030B585B03E
:1013880004460D4610220021684604F03EF9022367
:101398008DF802302A46044B01932146684602F034
:1013A80053FD05B030BD00BF7913000880B5054670
:1013B8000E461746984601F033FF034600F000FC3E
:1013C800DFF81890044649F800304246304639465E
:1013D800A84754F8090000F0D7FA00BF0800000039
:1013E800034A536823F0020353600020704700BF8C
:1013F800002004E0084B1A6842F480721A601A68E8
:1014080042F400721A601A6842F480621A60034B50
:10141800034A1A60704700BF003C024018000020D1
:101428000024F400014B036000207047285D000889
:1014380008B50348034A0021121A03F060F908BDF1
:1014480080000020F40500200748084A084908B52C
:10145800121A03F056F90748074A0849BDE8084038
:10146800121A03F04EB900BF0000002058000020F7
:1014780028650008000000200000002028650008FA
:1014880038B505460C4699B1D1E901230F480968DA
:1014980003F027F9D4E90423E1680D4803F021F9A2
:1014A800E1690C4803F01DF9A1690B4803F019F92B
:1014B800012D05D1EFF305810848103903F011F922
:1014C80021462846BDE8384001F0AAB9F05E000878
:1014D800205F0008505F0008605F00088F5F000809
:1014E80030BFFFF7FDBF00BF2DE9F0410B4EDFF81D
:1014F800308006EB0807CC1B0546324609492046D2
:1015080004F075F8A01942460021083C04F07DF863
:101518002C6707F10800BDE8F08100BF000000005B
:1015280008000000105D0008054B5A699B689A4244
:101538001FBF044A536843F080535360704700BF8D
:10154800A405002000ED00E02DE9F843324D804667
:1015580032488946174603F0C4F8AB6ADE0622D53E
:101568002F4803F0BEF81124AB6A1D0703D52D4898
:1015780003F0B7F81224284DAB6A980715D52A4806
:1015880003F0AFF86E6BAB6A190642D527483146AF
:1015980003F0A7F8B9F1000F03D0AB6A23F080037A
:1015A800AB62132403E01024DEE76FF015061A4D32
:1015B800AB6ADA0703D51E4803F093F81424AB6A24
:1015C8009B0603D51B4803F08CF81524124B9A6A26
:1015D800D50602D49A6A90070AD55B68190507D51B
:1015E8004146304600F094FA10B180F3098802248D
:1015F800094B9A6A920642BF5A6A22F400525A620A
:101608009A6A42F0FF029A6200233B702046BDE8C6
:10161800F8836FF01506C4E700ED00E0A35F00084B
:10162800BA5F0008EE5F0008026000081B6000084F
:10163800326000085260000810B51D4C1D4803F0C8
:1016480050F8A36A990130D51B4803F04AF81E20C8
:10165800A36ADA0103D5194803F043F81F20144C94
:10166800A36A1B0303D5164803F03BF82120A36A9D
:10167800590303D5134803F034F822200C4CA36A0D
:101688009A0303D5104803F02CF82320A36ADB0340
:1016980003D50E4803F025F82420054A936A6FEA1B
:1016A80003436FEA1343936210BD1D20D0E700BFC8
:1016B80000ED00E0826000089B600008AF60000851
:1016C800CA600008E96000080F6100082A61000884
:1016D80070B5244C064624480D4603F002F8A36A68
:1016E800D90435D5214802F0FCFF1720A36A1A0552
:1016F80003D51F4802F0F5FF18201A4CA36A9B0572
:101708000FD51C4802F0EDFFA16BA36A180407D59A
:10171800194802F0E6FF1EB1A36A23F40043A3624E
:101728001920104CA36A590503D5144802F0D9FFB3
:101738001A20A36ADA050DD5114802F0D2FF1B2042
:10174800084A936A43F47F43936200232B7070BD69
:101758001620CBE7A36A9B04F2D50A4802F0C1FF22
:101768001C20EDE700ED00E0566100086D610008FF
:10177800EE5F00087F61000899610008AF6100080A
:10178800CB610008526000082DE9F0415B4B5F68AF
:101798008AB00446C7F30806002585F31188BFF30D
:1017A8006F8F02F07F43B3F17F4F06D102F00C0335
:1017B800082B13D1524802F094FF00252C464FF015
:1017C8000008F31E8DF80780092B00F28680DFE8F9
:1017D80003F00A7A7E7684848484848210074CBF5E
:1017E8000C460125EBE74748444E02F07AFF8DF896
:1017F8000780F36A9A0704D5434802F072FF002372
:1018080030E0F36A002B01DA4048F6E7F36A5B0040
:10181800F5D53F4802F065FF7369A26943F4807308
:101828007361BFF34F8FBFF36F8F736932F8022C68
:1018380023F480737361BFF34F8FBFF36F8F4DF63F
:1018480002739A4209D0B36ADBB253B30DF10702AF
:1018580001212046FFF778FE33E021682D4802F089
:1018680040FF23689DF80720C2B902AE04F12007A3
:1018780020686168324603C20834BC421646F7D174
:10188800099AB5B3C2F3080121B96FEA52226FEA87
:101898004222099202A91846FFF7F2FD0AB0BDE8F4
:1018A800F081B36A13F47F4F05D00DF107010120D1
:1018B800FFF70EFF05E0B36AB3F5803F9FD3FFF74C
:1018C800BBFE0346CEE70DF107020021C1E70DF18B
:1018D80007010020ECE710488FE7104B104911482A
:1018E80017F4F87FA6F1100218BF194602F0F9FEA6
:1018F80085E722F4FF7222F00102CAE700ED00E05A
:10190800126200083E620008566200087862000809
:1019180087620008A7620008C4620008F96100082D
:10192800E4610008E9620008044B5A6942F01002B9
:101938005A615A6922F008025A61704700ED00E0C6
:10194800EFF30880EFF3098101B57246FFF71CFF3A
:1019580001BD00BF0A4880F30888102080F3118871
:1019680008484FF40461401880F30988EFF31480A5
:101978000221084380F31488BFF36F8F00F090F8BA
:10198800C013002000060020084B9B6883420BD13F
:10199800EFF3058343B1064B5A6842F080525A6010
:1019A8005A6A22F400425A6201F040BCA4050020A1
:1019B80000ED00E014498A684FF030001044EFF35E
:1019C800098C80E8F01F102080F31288BFF36F8F16
:1019D8000E4F4FF000664A698A603E60106F0C4CEB
:1019E8002060506F0023536780F3118804B51046B8
:1019F80000F0F8F8BDE8044002F1300090E8F01F6C
:101A08008CF3098870470000A405002004ED00E06D
:101A18004C0400201EF0040F0CBFEFF30880EFF316
:101A28000980816911F8021C0229FFD001B57246AC
:101A380002F069FE01BD00BF40B2002807DB044A7E
:101A48004109012300F01F00834042F8213070470C
:101A580000E100E040B20028A8BF00F1604001F1B9
:101A68000101B8BF064B4FEA0111ACBF00F5614058
:101A780000F00F00C9B2B4BF195480F800137047C2
:101A880014ED00E0044B054A23F07F039360BFF395
:101A98004F8FBFF36F8F70470000000800ED00E024
:101AA80008B5FFF7EFFF0B4AD2F8883023F470032C
:101AB800C2F88830EFF3148323F0040383F3148807
:101AC800BFF36F8FFFF7B4FCFFF7BEFC00F05AF8C6
:101AD80000F07CFF00ED00E042F8203C009B42F85B
:101AE8001C3C0A49019B42F8183C029B42F8143CF2
:101AF80021F001014FF0807342F8043C42F8081CC1
:101B08000023203A02654367704700BFB5130008F9
:101B1800094A0346906870B113F1160F006E05D09C
:101B2800A0F140029A4205D8834203D2814228BFDD
:101B38000020704700207047A405002008B515460E
:101B48000B4A0C4B9060026F1A600E4600F04AF880
:101B58002C4686F309880020034B9847204600212D
:101B680000220023014C20473D470008B513000818
:101B7800A40500204C040020014B10221A61704774
:101B880000ED00E0044800231021C2180133522B55
:101B980082F80013F9D1704700E100E008B5EFF3CF
:101BA8000583064A103B02EBC30152F8330049682B
:101BB8008847BDE80840FFF7B7BC00BF305A0008A7
:101BC80001480068704700004C040020024B034A9B
:101BD8000348012100F076B8000002200000002030
:101BE800285D0008026E054B403A1A60044A4021FD
:101BF800C3E901121846012100F06EB85004002014
:101C080000000B15084AC2F898000B6823F01F0360
:101C1800034343F01003C2F89C308B6843F0010380
:101C2800C2F8A030704700BF00ED00E02DE9F04396
:101C3800DFF8608085B00E461F4604464FF0000965
:101C4800B14523DA6068D8B13FB1411E08421BD1C3
:101C58001F2819D92368194216D12368019302F065
:101C68007DFDA36803430393D8F89050C5F3072577
:101C7800D0B2013DA84207D801A9FFF7C3FF421C13
:101C880009F101090C34DBE76FF01502104605B0C5
:101C9800BDE8F08300ED00E0044B0522C3F8942072
:101CA800BFF34F8FBFF36F8F704700BF00ED00E0A9
:101CB800BFF35F8F024B0022C3F89420704700BF28
:101CC80000ED00E010B5034C01232278FFF7AEFFCA
:101CD800207010BDEC05002008B50B4A00231278CF
:101CE800FFF7A4FF10F1160F07D0084A0021D2F819
:101CF8009030C3F30723984200DB08BDC2F8980070
:101D0800C2F8A0100130F2E7EC05002000ED00E079
:101D18002DE9F0435B4B5C4CD3F890302568C3F356
:101D280007239D4285B000F2A980FFF7C1FF00207C
:101D38000C2685421BD1554C554F25706846FFF738
:101D480071FBDFF84081DFF84C9106460025AE4272
:101D580014D123784B490020D1F89020C2F30722F0
:101D68009342C0F28580FFF797FF002045E0616845
:101D780006FB0011FFF746FF0130DAE7009800EB99
:101D880005114FEA051CCB683B40B3F5000F4DD059
:101D98000AD8B3F5001F33D0B3F5800F3BD0B3F5A5
:101DA800801F13D00135D2E7B3F1007F47D0B3F1DC
:101DB800805F4DD0B3F1807FF4D150F80C30886843
:101DC8004A6802F0CBFC40F0887009E050F80C300B
:101DD80088684A6802F0C2FC40F0885040F430201D
:101DE800CDE901230390D8F890302078C3F3072376
:101DF800013B984235D96FF0150005B0BDE8F08376
:101E080050F80C3088684A6802F0A8FC40F0885006
:101E180040F40020E4E750F80C3088684A6802F083
:101E28009DFC40F0C06040F40030D9E750F80C3019
:101E380088684A6802F092FC40F08270D0E750F857
:101E48000C3088684A6802F089FC40F48020C7E7B3
:101E580050F80C3088684A6802F080FC40EA0900B3
:101E6800BEE701A9FFF7CEFE23780133237099E777
:101E7800C1F89830C1F8A00001336DE74FF0FF308A
:101E8800BBE700BF00ED00E0345D0008EC05002072
:101E98000000F0FF0000021108B5054802F021FC1F
:101EA800002383F31188BFF36F8F0423184602DFE2
:101EB8000C63000808B50649064821F00701C1F17E
:101EC800005202F5003202F0CDFB002008BD00BF31
:101ED800071400205C04002003484FF0FF324FF045
:101EE800FF3300F0D9BD00BF04000020014800F016
:101EF8004BBE00BF0400002038B50546FFF7ECFFD5
:101F080008482A46082102F03EFB044628B925B1B4
:101F1800FFF756FE044B0C221A50FFF7E7FF204646
:101F280038BD00BF5C0400200C00000010B504465A
:101F3800FFF7D2FF2146034802F0E9FABDE8104056
:101F4800FFF7D4BF5C04002030B50F490F4C0023C5
:101F5800A14201D3002030BD0A68934204D0106921
:101F68004BB903801069438010694388013343806B
:101F780008311346ECE71D69B5F9025005801B6965
:101F88001069B3F90230EEE7105D0008105D000833
:101F980013B50C4C204602F042FE68B10A4A92E89A
:101FA80003006B4683E80300A26812683AB1194639
:101FB8002046904702B010BD6FF01200FAE76FF0AC
:101FC8005700F7E7FC580008105D00081F2809D8DB
:101FD800012303FA00F0044B5B6998430CBF01200E
:101FE8000020704700207047003C014000F01F02AD
:101FF8001F284FF0010303FA02F39DBF024A002095
:1020080053616FF015007047003C0140044B1844C1
:1020180000230133994200F8012BFADC704700BF16
:10202800300000202DE9F041104F054600264FF002
:1020380001086B78F4B2A34201D8BDE8F0812B788F
:102048001C442046FFF7C2FF68B12046FFF7CEFFC9
:1020580057F834303BB107EBC40204F01F04516851
:1020680008FA04F098470136E3E700BF6804002047
:10207800034660B1B0FA80F2C2F11F02D2B205493C
:102088008856054A11680B431360FFF7D5BCFF2239
:10209800F5E700BF30000020003C0140024A136809
:1020A80023EA000313607047003C0140032921D84C
:1020B800DFE801F0020C10190F4B9A6822EA0002BF
:1020C8009A60DA6822EA0002DA6070470A4B9A6876
:1020D8000243F5E7084BDA680243DA609A6822EAB5
:1020E80000029A607047044B9A6802439A60DA6863
:1020F8001043D860704700BF003C014030B5B0B114
:10210800B0FA80F3C3F11F03DBB20B4850F8334039
:102118008C4204D100EBC3056D68954205D044B9E3
:1021280040F8331000EBC3004260002030BDFF23AD
:10213800EBE76FF00F00F9E76804002060B1B0FA30
:1021480080F3C3F11F03DBB2044A002142F83310C5
:1021580002EBC30251607047FF23F5E768040020D3
:1021680000F00302043292000F23934043EA9000E8
:10217800C3B20233054A52F82320030C02EA104086
:1021880093FAA3F3B3FA83F3D840704700380140B9
:1021980038B5294B18680B88C3F30B03162B144664
:1021A8000D464FEA900218D803B3013B152B1DD8F2
:1021B800DFE803F00C3737370B232B1C1C1C1C1CC7
:1021C8001C1C1C1C1C1C1C1C350C1C4820602B686F
:1021D800B3F5805F29D2002038BD402B23D008D822
:1021E80023F00402302AF1D0382BEFD06FF08500AD
:1021F800F2E7442B07D0A82BF7E700F0C3F84FF419
:10220800A873C00858434008E0E700F0BBF84FF453
:10221800A873C00858430723B0FBF3F0D6E7500073
:10222800D4E70020D2E71046D0E7C3F313330133D5
:10223800B0FBF3F02060CEE71800002000127A000F
:10224800162808D8054BC34013F0010F14BF00200F
:102258006FF0850070476FF085007047E2006000FE
:10226800F8B5434F434D00F0ADF8384602F06FFB28
:1022780000F036FAAB68404AC3F303131478D35C12
:1022880047FA04F420FA03F6A64202D2204600F0E8
:1022980055FA2B6823F480232B602B6843F4803392
:1022A8002B60344B1A689203FCD59A6802F00C0232
:1022B800082A17D11A68950707D41A6842F001024C
:1022C8001A602C4A13689807FCD52A4B9A6822F0A2
:1022D80003029A609A6812F00C0FFBD19A6822F0F8
:1022E800F0029A60234D2B6823F080732B602B68D3
:1022F8009901FCD4214AD2F8043823F44033C2F8B7
:102308000438D2F8043823F0706343F0E063C2F86D
:10231800043800F03BF82B6843F080732B60154BB2
:102328001A689201FCD59A6822F0F0029A609A68BD
:1023380022F0030242F002029A609A6802F00C024C
:10234800082AFAD1A64202D3204600F0F7F90C4B2E
:10235800084A1F60936823F4E05343F4A053936042
:10236800936823F4604343F4004393600020F8BD6E
:10237800007A030A00380240CC63000800300240AB
:10238800180000200048704700127A00084B0949DD
:102398005A681140084A0A435A605A68074922F4A1
:1023A80040325A605A681140054A0A435A607047D9
:1023B800003802400080BFFF085440000080BFF092
:1023C80008544007064B1A6C42F080521A641B6C82
:1023D80082B003F080530193019B02B0704700BFA5
:1023E800003802402DE9F843D0F80480D0F8109066
:1023F800D8F8080017460D461E4602F008FAB7F549
:10240800001F044616D12846D8F80840FFF7A8FE52
:1024180084420CD1294602F0FAF90446FFF73EFE41
:102428002046FFF78BFE00212046FFF73FFE0020E5
:10243800BDE8F883B7F5800F20D0B6F1806F19D0CA
:10244800B6F1C06F18D0B6F1007F1AD10226104934
:102458004A462046FFF752FEB0B9D8F80810284679
:1024680002F0DAF920463146FFF720FE2046FFF752
:10247800FFFDDCE70126EAE70326E8E76FF08500C1
:10248800D6E76FF01500D3E76FF00F00D0E700BF75
:10249800CB4B000838B50369044658600A4D2846F6
:1024A80002F0BDFB60B1AB6861681B680C3123B1F9
:1024B8002846984700EAE07038BD6FF05700F9E702
:1024C8006FF01200F8E700BFFC58000810B54FF095
:1024D800E0230F499C691A6908689B690D4902F451
:1024E800803234B993B903464AB90A681044C01A0D
:1024F80010BD002B08BF03460AB9A342F5D90A68E4
:1025080002440A604FF0E0221269EEE70446F3E75E
:10251800A00500209C050020094B102283F82320E9
:10252800084B44F2A0121A60074B002018604FF0C5
:10253800E02344F29F125A61072298611A6170479A
:1025480000ED00E0A00500209C050020684620F072
:1025580007018D4619B5FFF7B9FF114B1149D3E9AA
:1025680000420868001942F10002C3E900020E4A5D
:1025780000230B60D2E9004144F2A013001BB0FB1A
:10258800F3F043431B1941F10001C2E9003101F0A6
:102598002DF8FEF7C9FFBDE819408546704700BF12
:1025A800880200209C050020800200202DE9F041CF
:1025B800DFF8DC8099B1421C0BD14FF0E02213699F
:1025C80023F0010313614FF07F43C8F80030BDE8E2
:1025D800F081D8F80060012807DC00270BE0431CD5
:1025E800D8F80060F7D140F2E53040F2E63398427F
:1025F800A8BF1846471EEFF31185102383F31288EE
:10260800BFF36F8FFFF762FF224C4FF0E023996909
:10261800D4E90023801843F10003C4E900031E4BEA
:1026280000221A601D4B1A68831A2ED444F2A01C8B
:102638000CFB073303F583431F33B3FBFCF7131A73
:102648000CFB073340F21A42934238BF1346144A30
:10265800934228BF13464FF0E022C8F80030013BF0
:1026680090695361002393618142A1EB0003D4E98F
:10267800001238BF9B195B1842F10002C4E900320E
:1026880085F31188BFF36F8FA1E740F21A43E2E7A1
:10269800A0050020880200209C0500208002002060
:1026A8002094FF0038B5EFF31185102383F31288C7
:1026B800BFF36F8F084B1C68084B1B68E41AFFF7C1
:1026C80005FF85F31188BFF36F8F44F2A0132044F0
:1026D800B0FBF3F038BD00BF880200208002002064
:1026E80008B513498B6803F00C03042B1CD0082B86
:1026F8001CD14A684B68496813F4800314BF0D481D
:102708000D48C1F3881118BF002302F03F02A1FB56
:102718000001FDF735FD064B5B68C3F30143013348
:102728005B00B0FBF3F008BD0248FCE70248FAE79B
:102738000038024000127A000024F40000285ED01D
:10274800304A136813F4804338D02F4B984215D978
:1027580013685B0449D505232C490A6822F007024F
:102768001A430A600A6802F0070293421CBF0A680B
:1027780002F00702981A18BF01207047244B9842AC
:1027880004D91368580436D50423E5E7214B984249
:1027980004D91368590430D50323DDE71E4B98424A
:1027A80007D81E4B984213681DD95A041FD5012318
:1027B800D2E713685B041CD50223CDE7126812F434
:1027C8008042C9D11249884215D81249884214D882
:1027D80011498842F0D811498842BDD9012A1346C7
:1027E80038BF0123B8E70023B6E70522F6E7012240
:1027F800F4E70222F2E70422F0E70322EEE70120E1
:10280800704700BF0070004080D1F008003C0240D3
:10281800000E2707804A5D050087930380C3C9011E
:1028280038B5EFF31185102383F31288BFF36F8F48
:10283800064B9C6802F006FA85F31188BFF36F8F88
:102848002046BDE83840FFF79FB800BFA405002028
:1028580038B50A4B53F82040013053F82050A542B0
:1028680000D838BD606830B1037EDB0701D402F0C0
:10287800BEF90834F3E723689847FAE7085E0008CA
:1028880070B52F4B2F4C304D012286B003201A70A3
:10289800FFF7DEFF00F022FFAC421AD10420FFF759
:1028A800D7FF2A4C2A4D2646AE4204F1300416D3EF
:1028B80000F0C2FB254C274EAC422CD300F0D0FBD5
:1028C80001F02CFD244A938923F00103938106B07B
:1028D80070BD54F8043B002BE0D09847DCE754F86F
:1028E8000C3C059354F8103C049354F8143C03939F
:1028F80054F8183C029354F81C3C019354F8203CBB
:10290800009354E90A2354E90C0100F08DF954F8B6
:10291800303C5E65C7E7D4E90A23B3F1FF3F08BF3F
:10292800B2F1FF3F05D052EA0301206803D100F05D
:1029380053FC3034C0E73146183000F0C7FDF8E7E3
:10294800ED050020005D0008105D0008C05C00086F
:10295800C05C0008454D00081003002070B5002336
:1029680086B00122CDE90423134E144D01930F22A2
:10297800CDE902321249142303FB005506EBC016B9
:1029880004464FF4C07000FB04110E4B00954FF441
:10299800A072304600F048F9337C0B4AEE6023F011
:1029A800040333744FF4046304FB033313442C749B
:1029B8006B6006B070BD00BF90020020A405002027
:1029C800400E0020534C000800060020BFB5002030
:1029D800FFF73EFF284B83F30888284C284F63698C
:1029E80043F4007363610025F02384F82230E5770F
:1029F80025766576A57684F82050636A43F4E0234B
:102A08006362FEF791FFFFF7B7F84FF0FF33A36259
:102A1800E362FFF77DF9FFF7D9F81A481A4C00F07E
:102A28007BF9FEF7E7FC0120FFF712FF0220FFF712
:102A38000FFF00F049FB154B15495C61154B0593D9
:102A48000123CDE903534FF480623B46CDE901559C
:102A58000095204600F0E8F8227C064622F00402A1
:102A68002046227402F03EF92846FFF777FF3A46DF
:102A780031462046FFF762F8400E002000ED00E0E6
:102A8800892800089003002010030020A4050020D6
:102A9800C00F0020DC6300082DE9F3410446174607
:102AA8001E46EFF31188102383F31288BFF36F8F4C
:102AB800C368334A7BB180689168884219D057EA65
:102AC800060318D188F31188BFF36F8F6FF00F00DA
:102AD80002B0BDE8F081916891F90E1021610133CF
:102AE800E3609368A36088F31188BFF36F8F0020B9
:102AF800EEE72169F2E791F90E1090F90E3099424C
:102B0800A8BF19466FF07E029142B8BF11468B42AA
:102B18002DDD02F0A5F80546CDE9007619482246D4
:102B2800414600F0CFF90028E1D0EFF311861023D9
:102B380083F31288BFF36F8FA068D0B1236821692F
:102B48009C420AD04BB193F90E309942A8BF19465E
:102B58006FF07E039942B8BF194602F081F840B180
:102B68000848314600F042FA6FF00A00B0E7002545
:102B7800D2E7002DF4D186F31188BFF36F8FF3E706
:102B8800A4050020EE050020F8B583680546002B53
:102B98003FD0234A926893423ED1C368012B03D9A0
:102BA800013BC3600020F8BDEFF31187102383F3C6
:102BB8001288BFF36F8F0169806802F051F82C68A2
:102BC800A54207D10023C5E9023387F31188BFF373
:102BD8006F8FE7E7002CF5D0D4E9003213605A6014
:102BE800237C002623F002032374C4E90066A66050
:102BF80004F1180002F0DCF8AC6094F90E302B6197
:102C08002046A66702F06EF80648394600F0EEF94D
:102C1800C8E76FF01500C6E74FF0FF30C3E700BF05
:102C2800A4050020EE0500202DE9F043073285B009
:102C380022F007020E461F461099818100F15803C1
:102C48007F32C0E916330446002322F03F020421F4
:102C5800836001743F2A0F98A073C4E90633E373B5
:102C680006F14009A2F1400805D883F31188BFF3A3
:102C78006F8F084602DFB51829462046FEF734FC58
:102C880007300E9B20F00700A066C4E9189802934D
:102C98000D9B01932D1A0C9B00932A463B46314607
:102CA8002046FEF719FF00236365044B9B6803B1B8
:102CB800DB6EE366284605B0BDE8F083A405002076
:102CC800F0B587B000250595109D04950F9D0395D7
:102CD8000E9D0295DDE912760D9D01950C9D0095DE
:102CE8000446FFF7A1FFB6F1FF3F08BFB7F1FF3F6A
:102CF80005D056EA070305D1204600F06DFA2046B4
:102D080007B0F0BD3A46334604F11800014900F017
:102D1800DDFBF4E7454D000801230374838100239C
:102D2800C0E91833C366014B98607047A4050020BA
:102D3800094A93686FF00A019967084958674B6810
:102D480043F080534B60002383F31188BFF36F8FE8
:102D58009368986F704700BFA405002000ED00E05D
:102D680070B590F91020037C002A36DBD90634D1DF
:102D78001B4C63F07F032246037452F8183FE16945
:102D8800934207D1C0E900210860E06111E099424F
:102D9800F8D01B68002BF5D090F90E5093F90E600F
:102DA800B542F4D0AE42F2DD5968C0E9003108609E
:102DB8005860A569954200D005B9E568A3681A7CF2
:102DC800D20604D1DA897F2A01D9AA6932B1AB4285
:102DD80002D0284600F0FAFA656170BD6361FCE72D
:102DE800A405002038B590F91020037C002A01467C
:102DF80004DA03F07F03037401F03AFF0D4D2A460D
:102E0800AB6852F8184F944200D004B9EC688B4272
:102E180007D01A7CD20604D1DA897F2A01D9A2699F
:102E28002AB1A34202D0204600F0D0FA23466B61B3
:102E380038BD00BFA4050020B3F1FF3F08BFB2F1C1
:102E4800FF3F03D00249183000F040BB704700BF75
:102E5800454D000838B5194CA168E0690B688142F6
:102E680014BF1A46002249680B605960A368E169DB
:102E78002AB9134AC3E900210B60E3610CE093F916
:102E88000E0092F90E50A84214D0854212DD516806
:102E9800C3E900210B605360A569094B9D4200D02E
:102EA80005B9E568A3689D4202D0284600F08EFA6D
:102EB800656138BD9142DCD01268D9E7A4050020CD
:102EC800BC050020F8B50E4B0C4611460D4A986813
:102ED8001060DDE90667EFF31182102282F3128891
:102EE800BFF36F8F9D68284601F0D4FE284632460E
:102EF8003B46FFF7A1FF2046BDE8F840FFF718BFA3
:102F0800A4050020C4050020F8B50446EFF3118796
:102F1800102383F31288BFF36F8F037C03F01F0223
:102F2800002A0CBF0126002649B239D103F07F03DD
:102F3800037401F09DFE2C4D037C817363F07F03C5
:102F48002A46037452F8183F934227D1E869C4E926
:102F580000200460EC610FE09842F8D01B68002B59
:102F6800F5D093F90EC06145F6D08C45F4DD59686B
:102F7800C4E900310C605C60AC69944200D004B9CB
:102F8800EC68AB689C4202D0204600F01FFA6C61E6
:102F980087F31188BFF36F8F3046F8BDE869DEE725
:102FA8009B071ED5856801F063FE81732B689D42DF
:102FB80009D16B68C4E900531C606C60E8E76A6873
:102FC8009342F6D01B68002BF3D093F90E20914260
:102FD800F5D08A42F3DD5A68C4E9003214605C60B7
:102FE800D6E78173D4E700BFA405002049B9EFF301
:102FF800058030B9054B5A699B689A4201D0FFF7A2
:1030080097BE81F31188BFF36F8F7047A405002026
:10301800034648B9EFF3058232B9064A5169926806
:10302800914201D0FFF784BE83F31188BFF36F8FFD
:10303800704700BFA4050020EFF31181102383F32C
:103048001288BFF36F8F054B9A68D37B013BD3730C
:1030580081F31188BFF36F8F704700BFA40500206C
:1030680070B5EFF31186102383F31288BFF36F8FC7
:10307800144DAB68DA7B0132DA732A4652F8184FDE
:10308800944200D004B9EC681A7CD20604D1DA89DB
:103098007F2A01D9A2692AB1A34202D0204600F0B2
:1030A80095F923466B6186F31188BFF36F8FEFF3B1
:1030B8001180102383F31288BFF36F8FBDE870402F
:1030C800FFF7A6BFA4050020024B03F11802C3E9CD
:1030D80006227047A405002070B5EFF3118610236F
:1030E80083F31288BFF36F8F1B4CA168E0690B68EC
:1030F800814214BF1A46002249680B605960A368D0
:10310800E1692AB9154AC3E900210B60E3610CE0C3
:1031180093F90E0092F90E50A84218D0854216DD98
:103128005168C3E900210B605360A5690B4B9D42B0
:1031380000D005B9E568A3689D4202D0284600F092
:1031480045F965613046BDE87040FFF7F1BD8A4238
:10315800D8D01268D5E700BFA4050020BC05002020
:10316800F8B550EA010306460C4603D1FFF7B4FF51
:103178000020F8BDEFF31187102383F31288BFF303
:103188006F8F124D124BA8681860FFF72BFEA868C6
:10319800104923463246183000F098F9AA68137C83
:1031A80043F00403137404463846FFF7C1FDAB68C7
:1031B800D3E90A23B3F1004F08BF002AD8D101F0A0
:1031C8001FFE201A20EAE070D3E700BFA405002004
:1031D800C4050020454D000838B50446EFF31185B5
:1031E800102383F31288BFF36F8F037C5B070FD51F
:1031F800183001F0DDFD237C23F0040320462374FE
:10320800FFF7AEFD29460548BDE83840FFF7EEBE9A
:1032180085F31188BFF36F8F38BD00BFEF0500201D
:10322800014B9868704700BFA40500202DE9F843BA
:1032380004468789EFF31185102383F31288BFF3BF
:103248006F8F037C190705D585F31188BFF36F8F3E
:10325800BDE8F883D90943F008025DD10274A36878
:1032680013B1204601F00CFD04F1180001F0A0FD97
:10327800A66D04F15808B04511D04FF0000976B199
:10328800304601F0FDFC06F1180001F091FDC6F88A
:1032980078903046FFF764FDA66DB045EFD1DFF8B2
:1032A800C080D8F808309C423ED1EFF30589B9F1C7
:1032B800000918BF4FF00109D8F81860294A96424A
:1032C80000D00EB9D8F80C60B34202D0304600F0F6
:1032D8007DF82046C8F8146001F029FAB9F1000F0A
:1032E80002D02148FFF718FDD8F808309C4231D1A8
:1032F800EFF3058373BBA289D20718D42846FFF7DA
:1033080017FDFB07A4D5002383F31188BFF36F8F44
:103318000423184602DF9BE703F07F0343F008030A
:10332800037401F0A5FC9AE74FF00009C4E785F3A0
:103338001188BFF36F8F83F31188BFF36F8F042356
:10334800184602DFEFF31180102383F31288BFF3CE
:103358006F8FD4E785F31188BFF36F8FD1E700BF74
:10336800A4050020BC05002090030020027C12F078
:103378001F02034610D10A4988420DD0094908683E
:1033880068B1D9897F2909D893F90E20064B1B68A3
:103398009A42B8BF00207047002070471046704717
:1033A800900200201C000020C8050020044BC01A11
:1033B800044BC0105843044B01221A54704700BFF5
:1033C80010040020ABAAAAAAF005002070B50D4B86
:1033D8000D4D1E7CFFF7CAFF06EB460305EBC30540
:1033E8000446284601F0E4FC084B00229A553CB1FB
:1033F800621E28460649BDE87040D31700F066B83B
:1034080070BD00BFA405002010040020F0050020B6
:10341800B533000838B5EFF31185102383F312880C
:10342800BFF36F8F0F4B104A9C681068A04206D1FB
:10343800FFF7CCFF85F31188BFF36F8F38BD0021EC
:103448001B7C1160094AD35C002BF3D02046FFF7A0
:103458008DFF0028EED0237CDB0601D1FFF7FAFCB4
:103468002046E5E7A4050020C4050020F00500205B
:10347800024B1868984208BF0020704720000020BF
:10348800034B1B680BB9FFF70DB90020704700BF4D
:10349800CC05002030B570B10B4B5B6898420AD060
:1034A800036843B1D3E90421D0E90445121941EB7B
:1034B8000501C3E90421D0E9003213605A600023F2
:1034C800C0E9003330BD00BF20000020B3F1FF3F4A
:1034D80008BFB2F1FF3F2DE9F84F0446994615465B
:1034E8001F467AD08160EFF31188102383F3128886
:1034F800BFF36F8FB9F1000FDFF8E4A020DBFFF70F
:10350800BFFFDAE90027013549F100092D1849EB19
:10351800E073C4E90453AD18064643EB07074FF0C0
:103528000109FFF7A5FFDFF8BCE0DEF804A00346B9
:10353800EBB9C4E900EACAF80040CEF8044028E034
:10354800DAE900126FF001035B1A4FF0FF3161EB0B
:1035580002025B1B62EB0902012B72F10001BCBF86
:1035680001230022C0E904324FF00009D9E7D3E96A
:10357800041CD4E904208A4270EB0C0B24DA891A63
:103588005A686CEB0000C3E90410C4E90032146007
:103598005C60FFF76DFF84420ED1134B1B685BB96B
:1035A800B9F1000F02D1FFF76BFF0646304601F074
:1035B800E8FB0021FEF7FAFF88F31188BFF36F8F4D
:1035C80028463946BDE8F88F521A60EB0C009A4538
:1035D800C4E90420ADD01B68AAE700252F46EFE711
:1035E8002804002020000020CC0500202DE9F04709
:1035F800EFF31185102383F31288BFF36F8FDFF881
:10360800A490DFF8A480C9F80000FFF731FF002676
:103618000027D9F80030D8E900ECD91750B1D0E923
:103628000442A34271EB020A1CDAE41A62EB0102BB
:10363800C0E9044213EB0E034FF000044CEB010108
:103648002046C8E90031C9F8004001F09AFB21463C
:10365800FEF7ACFF85F31188BFF36F8FBDE8F04725
:10366800FFF7D8BE14EB0E024CEBE473C0E9046715
:10367800C8E90023FFF70EFF85F31188BFF36F8FAA
:1036880083689847EFF31185102383F31288BFF3FB
:103698006F8FD9F800301B1BC9F80030FFF7E8FE20
:1036A800B7E700BFCC0500202804002010B5EFF3D1
:1036B8001184102383F31288BFF36F8FFFF7E0FEA6
:1036C800054A0346D2E90001181841EBE37184F377
:1036D8001188BFF36F8F10BD28040020014801F046
:1036E80000B800BFE163000838B5064C064DAC428F
:1036F80001D3002038BDD4E90112204601F084FB33
:103708001834F4E75800002058000020F8B50023CA
:10371800044683600D46D1E90001164684E803009B
:1037280001F07DFA10B3012EEB882868297914BFBF
:103738004FF480324FF4B01213430D4A0769D0F8A2
:1037480008C03D689A4308BF83F44023012623F448
:1037580080128E40DB074CBF3543B5433D60DCF833
:10376800003098470028A4BF012323722046F8BDE3
:10377800010010000268D20710B503460FD4427842
:1037880052B1042001F05DFC044600F019F8054A26
:103798000549204601F0ACFC0120587010BD0020FE
:1037A800FCE700BFB5370008205E000810B5034BE2
:1037B8000360044601F05BFC204610BD345E00083F
:1037C800014B0360704700BF345E000810B5034B1F
:1037D8000360044600F004F8204610BD545E00085B
:1037E80010B5034B0360044601F0A7FB204610BD4B
:1037F800945E0008194A50F8081C536870B5A0F187
:10380800080413B16518AB4203D940F8043C54606E
:1038180070BD5E681FD11B680B4440E90236F6E7AD
:103828001A1D33465E6836B1B542F9D301BF2E681A
:103838006D685D60891913681D685E19B4421FBF01
:103848005B6840F8043C136840F8081C06BF6D1814
:103858001D605C60DCE70432E4E700BFD0050020AF
:103868000830082830B50F4A38BF0820073020F044
:10387800070352F8040F98B101688B4206D8CD1A95
:10388800072D446805D80160214607E0021D4068FD
:10389800F1E7C1184C60C55010680360116008302A
:1038A80030BD00BFD0050020064A93688038984292
:1038B80005D9D2681344984201D2FFF79BBFFEF79F
:1038C80035BB00BFD005002038B5084C4FF41E6545
:1038D8002846E560FEF710FBA06010B9E060606064
:1038E80038BD0023606005604360F9E7D00500201B
:1038F800004870479364000800487047A2640008B5
:10390800024B1868BFF35B8F704700BF2C00002084
:10391800024B1868BFF35B8F704700BF2800002078
:1039280038B5002540E91E1240F8805C0446FFF7D0
:10393800EFFF44F8700CFFF7E3FF472304F8583C07
:103948004E2304F8573C552304F8563C432304F807
:10395800553C04F8543C2B2304F8533C04F8523CDF
:1039680004F8515C034B44F86C0C44F8503CA4F147
:10397800800038BDB550000800487047E0050020B9
:1039880000487047E0050020024A0349034800F058
:10399800C5BE00BF4804002073520008E00500209F
:1039A8002DE9F04F93B00023079300F00303012B98
:1039B80006460C46154610D0022B03D0002B5DD1CD
:1039C80003075DD529462046FDF7EDFB18B1092010
:1039D80013B0BDE8F08F0820FAE7070745D50223A2
:1039E80006F008061E430CAB009300230C22194670
:1039F80028460C94FCF7A0FD062E43D1D4F830805D
:103A0800D4E90A73B8F1000F00F03F819946002FFE
:103A1800C0F23E81032600230DF12C091A461946EF
:103A2800CDF8009028460B94FCF786FD0023194634
:103A38000122CDF8009028460B97FCF77DFD0F2159
:103A4800284601F0E0FC00F0010040EA08000023ED
:103A58000B90CDF800900F2219462846FCF76CFD14
:103A6800022E00F02F810720B2E70F6A10460D21C1
:103A780001F0C9FC8742B2D10623B1E7FEF70CFA80
:103A88000123ADE72846FDF7A8FB8146002899D019
:103A98000CAA0146284601F087FC9DF844B0029024
:103AA8002946584601F04FFC0F2103900E902846F6
:103AB80001F0A9FC029A20F0010808F1FF38109FD4
:103AC80097420DD80027B8460123F10700F1C580B9
:103AD800320740F1D780012B40F0CC8001F0D8FAB2
:103AE8009DF845A008AB5146002001F04DFC09ABFC
:103AF80002465146002001F047FC0AAB02465146F7
:103B0800002001F041FC0BA901F0B0FB0C9B0899C7
:103B18000B444345024653D809990B444345CED933
:103B2800DDE90A30002B3FF44DAF0D9A03EB020894
:103B380000283BD001383844B8F1000F3FF442AFB9
:103B480016F0080304933DD0472323704E23637077
:103B58005523A3704323E370462323714F236371D6
:103B68005223A3710023E3710023029309A901F0F2
:103B78008CFB0AA9059001F088FB099F002F69D0EA
:103B880043DDBBF1FF0F3CD00BF00703042B3FF6DE
:103B980075AF01A252F823F00F3C0008853A0008DF
:103BA800DF3B00080F3C0008073C0008B8F1000F95
:103BB8003FF408AFF0073FF505AF002702262AE7D4
:103BC8003A467CE7E379012B0CBF54F8203C04F11A
:103BD80058030793C8E702220F990BAB02FB171291
:103BE8005846039901F069FB0B9931B134B307AB1F
:103BF8000022204600F070F800B3032365E708228E
:103C0800EAE70022E8E70422E6E70F9B6FF040426C
:103C1800D21B03EB820AC4B10499B1B9079B0B9379
:103C2800AAF1040A5AF8041F0029E6D00BAB0022B7
:103C38005144204600F050F80028F3D00A98002894
:103C480044D0059B0344184690E753F82230002BD4
:103C5800F4D1D2E701230293F0E70D212846079E0D
:103C680001F0D1FBC4E90A79C4E90806C4F8308038
:103C78000620ADE6002FBFF6CDAE01F012FA01F036
:103C8800A7FA2BE7012B7FF4C2AE204601F03DFCDA
:103C98000CAA4946284601F087FB9DF844002946AE
:103CA80001F051FB0F9BFA4303EB8203002253F808
:103CB800221029B9C4E90A200422C4E90C23A9E680
:103CC8000132F4E7204601F0CDFBCCE6029B002B45
:103CD8007FF470AF76E600BF2DE9F3411E46037806
:103CE800472B04460F4613D143784E2B10D18378C7
:103CF800552B0DD1C378432B0AD10379462B07D115
:103D080043794F2B04D18379522B01D1C2793AB32D
:103D1800204601F08AFB024620B3E37954F8202CB0
:103D2800012B0EBF52F8785C154604F158022B6837
:103D380001929B6828469847B0B1019B1B68019384
:103D480002243B6801AAD3F810802946012338468B
:103D5800C04758B1019B3360204602B0BDE8F081EE
:103D6800034DE4E7034DE2E70124EAE70446F3E7FD
:103D7800CC5E0008D45E00082DE9F04F85B00246FD
:103D880001F0A6FB50B352E906531046D2E90C469F
:103D9800D2F828A0019301F01BFA284601F07DF91A
:103DA80001F016FAFFF7E8FD036893F82720012AC7
:103DB80003F120091BD11B680293002524F0030896
:103DC8002F46574515DB002D34D0042001F039F972
:103DD8001A4B1B4A1B49036001F08AF9104601F08F
:103DE800F7F901F05EF901F0F3F901F051F97833D0
:103DF800E2E7346804B1344402AB00222146484665
:103E0800FFF76AFF38B101F08DF901F00AFA01F005
:103E180008FA01F004FB23680390D3F810B00949AD
:103E2800012303AA2046D84701374644002818BF73
:103E38000546C6E7019801F023F900BFE45E0008D3
:103E480079500008C05E00082DE9F04F8DB0436836
:103E58000293837815469A07804640F10D81002425
:103E68000E78002E00F00A81252E0BD04B1C0393F0
:103E78000134029B4146304698470028C0F2F6803C
:103E88000399EDE74E788B1C252E0393F0D000277D
:103E9800B946BB46BBF11F0F38D8A6F12003102B3B
:103EA8000AD8DFE803F02A090930090909210909B4
:103EB8000928092D09091F00A6F13003092B33D958
:103EC8002A2E37D11BF0400F55F8043B40F0828072
:103ED800002BA7BF4BF0200B9946C3F100094BF00C
:103EE800280B01E04BF0010B039B13F8016B0393C4
:103EF800002ECFD130E04BF0020B4BF0040BF3E770
:103F08004BF0080BF0E74BF0100BEDE7BBF17F0F20
:103F180019D8A6F13003092BD2D81BF0400F03D0D3
:103F28000A2101FB0737DFE70A2101FB09394BF0BA
:103F3800200BD9E72E2E06D11BF0400F40F09E80B3
:103F48004BF0400BD0E76C2E31D02BD8682E36D0F2
:103F58006A2E3CD04C2E3AD0002F46F02003B8BF32
:103F68002BF04002A3F16501BCBF1FFA82FB0027BA
:103F7800022901D9612B2FD1073525F00705DFF874
:103F8800ACA2083507271BF0080F66D00AEB070B11
:103F980056465E4563D1A4EB0A0A06EB0A02A9EB72
:103FA80007096FE1742E9FD07A2E9DD0D4E71BF0BD
:103FB800800F18BF4BF4007B4BF0800B94E71BF489
:103FC800807F18BF4BF4007B4BF4807B8CE74BF46D
:103FD800207B89E71F4687E7A6F16301122900F2D3
:103FE800F080DFE811F013004F00EE00EE00EE0065
:103FF800EE004F00EE00EE00EE00EE00EE00FE00D8
:10400800E900EE00EE001B00EE00AF0055F8043B9F
:104018008DF8183001270DF1180AB4E755F804ABEC
:10402800834BBAF1000F08BF9A461BF0400F14BF2C
:1040380039464FF0FF31504601F076FA0746A2E7BD
:10404800029B41462020984700280FDB013EB742DB
:10405800F6D34C44A41BB14698E74E46F7E716F84A
:10406800010B029B41469847002892DA98F80230E3
:1040780043F0040388F802304FF0FF3420460DB0B7
:10408800BDE8F08F1BF0800F34D01BF4007F2CD0DC
:10409800073525F00705AA4669685AF8080B2BF07A
:1040A80010050029ADB237DA404261EB410145F411
:1040B80080650DF1180B0A235A4601F041FAA0EB6E
:1040C8000B0301936B0662D5019B25F001019F420A
:1040D80089B240F3A180002E00F0998015F01002FB
:1040E80040F09C80BB460D4623E0AA465AF8040BD4
:1040F800C117D4E7AA461BF4807F5AF8041B01D1E4
:104108000846F5E71BF4007F15BF48B208B241F333
:10411800C01141F3C031C2E750EA0103C9D11BF015
:10412800400FC6D0002FC4D12BF0110295B2BB4668
:10413800019740F2064115EA01021CBF0BF1010B81
:1041480000222CE02BF010021FFA82FB0A231BF03E
:10415800800C49D01BF400711DBF073525F00705F9
:10416800AA46AA461ABF5AF8080B69685AF8040BF7
:1041780050EA010545D12BF016051BF0400FADB2F2
:1041880042D0002F40D12BF0170295B2019715F0BD
:10419800100248D0019B002E42D103F1010B2907E0
:1041A8005AD4EB0706D5D9456FDD0199A9EB0B0366
:1041B8005F18CB465B4649E04BF0100B102378267E
:1041C800C5E7782B04D1C6F1780343F01003BEE7A6
:1041D800029B4146252098470028FFF647AF023446
:1041E80047E608230026B2E7AA461BF480715AF86E
:1041F800040BBDD01BF400711ABFC0B2614680B277
:10420800B6E72BF0060295B20DF1180B54E725F02E
:104218001105ADB2BB468CE70D46B8E73B460D46E7
:1042280003F1020BBBE7DDF804B082E71F65000865
:1042380018650008CDE904324146029B20209847C2
:104248000028FFF613AF049B059A01339945F1DC6A
:10425800A4EB0B01CC189B460AB3029B41463020C5
:1042680098470028FFF602AF8EB901342744019B16
:10427800391B994224DC1D465DBB019AA9EB0B0949
:10428800224455461446914435E0019F92E7023492
:1042980041463046029B98470028E7DAE6E640F2B6
:1042A80006410D42E2D015F0020F14BF2B2020204A
:1042B80015F4806F04F10104414618BF2D20E9E789
:1042C800029B414630209847002804F10104CEDAC9
:1042D800CCE606AB013D4146585D029B9847002855
:1042E800CADAC3E6029B414620209847002804F119
:1042F8000104FFF6BBAEA9EB0403002BF2DCBFE51B
:10430800704708B500F006F8FCF770FFBDE80840F4
:1043180000F001B870470520FCF7FCBF08B5FFF7AF
:10432800F0FF002142F2107000F00CFDF9E70020C8
:10433800704700EBC100408840087047F8B5034655
:10434800FFF7F7FFB0FA80F0C0F11F0003EB800C15
:10435800CA00DCF81060171D0C4606328DB256B93B
:10436800012101FA00F0D9680143D960CCF8104066
:10437800DD539D52F8BDF1000431585AD85303EB70
:10438800C0009E52C5805D52F4E710B500EBC10431
:10439800E388994202F104010AD1012303FA02F2E7
:1043A800C36823EA0203C360002340F8213010BD2C
:1043B800A28840F8213000EBC20100EBC300CB809B
:1043C8008280F4E708B50346FFF7B3FFB0FA80F23E
:1043D800C2F11F021846BDE80840FFF7D6BF2DE915
:1043E800F843B1FA81F5C5F11F0900EB89080346C6
:1043F800D8F810200E46C2B10327D8F81040184646
:104408002146FFF796FFB04206D34A461846FFF703
:10441800BCFF2046BDE8F88303EBC404013FE088F5
:10442800C8F8100001D08242E7D1C5F120024FF050
:10443800FF349440DA681440EBD094FAA4F2B2FA4C
:1044480082F2111D53F821402146DFE738B50346B3
:10445800FFF76FFF0D46044611461846FFF769FF40
:1044680003EBC5050444600068801846FFF761FF48
:10447800014423F8314038BD38B50346FFF759FFEA
:104488000C46A51A511A03EBC40405444800608081
:1044980003EBC2006C00448023F832101846114622
:1044A800FFF747FF014423F8315038BD38B50546BA
:1044B800FFF73FFF0C46014405EBC1035B88DA07B1
:1044C8000AD42846FFF77EFF21462846FFF731FF2A
:1044D80022182846FFF7BAFF35F83410611A05EBA1
:1044E800C1035B88DB070CD42846FFF76BFF35F860
:1044F80034102246611A2846FFF7A8FF35F83430F1
:10450800E41A21462846BDE83840FFF717BF61B1D5
:1045180000680439091A21F007030344C9085A88B6
:1045280022F001025A80FFF7C1BF704770B50568D5
:1045380009B9002070BD01F007030B33CC0804EB68
:10454800D304AB689C4228BF1C4621462846FFF787
:1045580046FF06460028ECD001462846FFF7E9FE4C
:10456800A04207D932192846FFF786FF1146284688
:10457800FFF7E4FE05EBC6021046538843F001033B
:1045880053800430D6E72DE9F84301F1FF3919EAE1
:10459800010906680F4614460CD04B420B40042B09
:1045A8001A464F4628BF0422994664B90025284672
:1045B800BDE8F883042904D8BDE8F8431146FFF79D
:1045C800B5BF0422F1E7BA1A04F0070302F00701A5
:1045D8000B330B44E10801EBD20101EBD301B368C3
:1045E800994228BF19463046FFF7F9FE8046002851
:1045F800DCD009F1040505EBC0057B1E35441D44DC
:10460800B5FBF7F57D43A5EB09052C442B1F0734B3
:104618009B1B24F00704A41BB0EBD30F4FEAD3076E
:104628004FEAE40408D201463A463046FFF724FF31
:1046380041463046FFF782FE39463046FFF779FE9D
:104648003844844207D230462246FFF715FF2146F8
:104658003046FFF773FE06EBC706738843F0010385
:104668007380A4E7043A2DE9F041CC1D114424F0ED
:10467800070421F007010E1BF708B7FA87F2C2F109
:104688002405AD004FF000080735C2F12002ED08FF
:1046980004604146A760C4F80C80920004F1100041
:1046A80000F0B3FF6B0043F00103638004EBC50225
:1046B8007B1B5900A4F800805180A21924F83550BA
:1046C800A2F80280A35304EBC70329465A8842F094
:1046D80001025A802046BDE8F041FFF72FBE0020B6
:1046E80070470FB407B504A951F8040B0191FCF702
:1046F80045FE03B05DF804EB04B07047704700F066
:1047080084BF00F074BF01460068FCF7B9BE08B565
:10471800FCF7E6FEBDE80840FCF706BF0B4601467D
:104728001846FFF704BE00210120FCF7A9BE6FF070
:104738008500704761B662B680F31188BFF36F8F4A
:10474800704772B6002383F31188BFF36F8FBFF3EE
:104758004F8F30BF62B6BFF36F8F7047202809D9DB
:10476800B0F1004F08D80138B0FA80F0C0F11F004E
:1047780040007047082070473E20704708B5062261
:1047880001210020FDF742FC002211460620FDF71A
:1047980061F9012108460722FDF738FC002211467D
:1047A8000720FDF757F9082201210220FDF72EFC0A
:1047B800002211460820FDF74DF9092201210320A6
:1047C800FDF724FC002211460920FDF743F90A22CF
:1047D80001210420FDF71AFC002211460A20FDF7EA
:1047E80039F9052108461722FDF710FC0022114669
:1047F8001720FDF72FF9282206210A20FDF706FCCD
:10480800002211462820FDF725F9002008BD01F0F7
:104818001F0101208840704700F003020432920013
:104828000F23934043EA900010B5C3B29B0003F1F5
:10483800804303F59C33020C9C6892FAA2F2B2FA08
:1048480082F224EA104091400143996010BD0B8820
:10485800C3F30B0303F57D62C2F30B02782A82B01F
:1048680014D803F1804303F50E3348681A680243ED
:104878001A600B88C3F30B0303F1804303F50E336F
:1048880000201B680193019B02B070476FF0850000
:10489800FAE70B88C3F30B0303F57D62C2F30B023F
:1048A800782A9FBF03F1804303F50E3349681A68DD
:1048B8009DBF8A4300201A606FF08500704738B5A5
:1048C8000888C0F30B00FDF7BBFC002822DB486812
:1048D800FF281ED082B2C0F3415502F1804202F592
:1048E8000E3201350123AB401468C0F30440013B8C
:1048F800834024EA0303136049688BB203F18043C1
:1049080003F50E330A0E1868C1F304418A400243C6
:104918001A60002038BD0888C0F30B0008B500F500
:104928007D63C3F30B03782B0AD800F1804000F5B0
:104938000E304B680268934314BF0120022008BD63
:10494800FDF77EFC002814BF01200220F7E770471E
:1049580043685B681B690B600020704743685B68AD
:10496800586942400A4042405A61002070474368F3
:104978005B6800209961704743685B680904996126
:104988000020704743685B685A69514059610020AC
:10499800704710B503699868F8B1884219D1DC6886
:1049A80008689860A14200D1D860002008602AB148
:1049B8009A680A60DA68996002B9D960002010E044
:1049C800814206D108682060D8688142EDD1DC6058
:1049D800EBE7044600680028F2D1002AE8D16FF01E
:1049E800150010BDF0B544680120676888401E4670
:1049F800C2F3801327EA00078B403B43636090FAB9
:104A0800A0F7B7FA87F7D4F808C04FF0030E7F0075
:104A18000EFA07F72CEA070C90FAA0F7B7FA87F70F
:104A2800C2F3C1137F00BB4043EA0C03A36090FAB2
:104A3800A0F3B3FA83F3E7685B000EFA03F327EAFF
:104A4800030790FAA0F3B3FA83F302F030055B0092
:104A5800C2F341229A403A43202DE26016D1072939
:104A68002BD890FAA0F3226A2BB3B3FA83F39B00F6
:104A78000F2101FA03F322EA030290FAA0F3B3FA32
:104A880083F39B0006FA03F31343236290FAA0F31F
:104A9800B3FA83F3226890FAA0F05B000321B0FA1E
:104AA80080F02D0901FA03F3400022EA0303854050
:104AB8001D432560F0BD2B46D9E7030A616A93FAC6
:104AC800A3F282B1B2FA82F292000F2793FAA3F30B
:104AD800B3FA83F307FA02F29B0021EA02029E402E
:104AE80016436662D2E72A46EEE712F4003CF8B5B0
:104AF80005460C4613461DD0960714D550075DD5BC
:104B08005022D90611D542F4007203F4C061B1F500
:104B1800806F42D0B1F5C06F19D0B1F5007F18D1C0
:104B280042F0800215E01022EBE79F06EDD542F433
:104B38008062EAE7D60305D5D00605D4C2F3401251
:104B48009202E2E73022E0E74FF40072DDE742F438
:104B5800C07213F440372E6908D0306920FA04F186
:104B6800C9075FBF0121A14001433161BCF1000FBA
:104B780006D0180314D5696801234968A3408B61DE
:104B8800686800232146FFF72DFF27B9336923FA08
:104B980004F2D2070CD40020F8BD42F48072D8E7A2
:104BA8005903EDD50121A1402846FFF7E5FEE7E7C7
:104BB8000122A24023EA02033361ECE76FF085008B
:104BC800EAE770B50B468968054611B15E680C685E
:104BD80001B970BD8A682A4002D04B6830469847B0
:104BE8001CB1236821461C46F2E72346FAE710B5B4
:104BF800436904463BB90020E268537843F0010357
:104C08005370404210BD98470028F4D00028B8BF20
:104C18004042E368FF28A8BFFF201870ECE740B1C6
:104C2800C368587810F001001EBF1878B0FA80F0F9
:104C380040097047EFF31183102383F31288BFF301
:104C48006F8FFEE708B5FFF7F5FF08B51024EFF3FF
:104C5800118384F31288BFF36F8FFFF772FDF6E7B5
:104C680090F90E308B4201D0FEF74EB90020704704
:104C7800D0E9003213605A600023C0E9003370475E
:104C880008B5FFF7F5FF037C23F002030374002344
:104C9800836008BD38B504460D46FEF7A3F8237CAB
:104CA80043F002032374E5B1A5602B689D4209D146
:104CB8006B68C4E900531C606C6012E06A689A4231
:104CC800F6D01B68002BF3D094F90E2093F90E1040
:104CD8008A42F3D09142F1DD5A68C4E90032146087
:104CE8005C6038BD10B5EFF31184102383F312888C
:104CF800BFF36F8FFEF734F884F31188BFF36F8F1B
:104D080010BD10B50146EFF31184102383F3128808
:104D1800BFF36F8F037C13F0280F0AD183680BB1A0
:104D2800FFF7AEFF0B7C23F004030B740846FEF775
:104D380017F884F31188BFF36F8F10BD012118385D
:104D4800FFF7DFBF38B504460D46FEF709FAB5F19F
:104D5800FF3F08BFB4F1FF3F0346204610D013F1D0
:104D680009004FEAE37141F100010A220023FBF731
:104D780007FAB0F1004F71F1000128BF6FF0004051
:104D880038BD08B50246FEF773FB70B1D0E90431AF
:104D98009B1A61EBE272B3F1004F72F1000104DA81
:104DA800002AACBF1846002008BD6FF00040FBE7A2
:104DB80038B50246EFF31185102383F31288BFF349
:104DC8006F8F0368CBB1FEF753FB04461046FEF71E
:104DD80061FB00224FF000438442C0E9042306D15E
:104DE800FEF74EFBFFF7CDFF0021FDF7DFFB0020AC
:104DF80085F31188BFF36F8F38BD6FF01500F7E7A3
:104E080008B5FEF753FC08BD10B400F10C04C0E966
:104E180003440024047510BCFFF724BC027A03463F
:104E280032B11B7900680121994083685B69184792
:104E3800704701230360704710B50446FEF7B6FCBF
:104E48002046042100F0FBF8204610BD10B50446AA
:104E5800FEF7BCFC20460C2100F0F1F8204610BDFE
:104E68002DE9F041DDF81880904506460F461546B5
:104E78001C460BD0B0680368CDF818801E6A2A4615
:104E880023463946B446BDE8F0416047194600F06C
:104E980057F80028EED00620BDE8F0812DE9F14F43
:104EA8000D461946DDE90A4BDDE90CA68146174691
:104EB800984600F045F890B1002D3460377109DB51
:104EC8002C44A24514BF01240624B471002001B06B
:104ED800BDE8F08F0235F9D10123B371F6E75445E7
:104EE80006D15946484600F02BF808B17771EDE72E
:104EF800D9F808000368CDE90CA6CDE90A4BDC69AE
:104F08003A4643462946A44601B0BDE8F04F6047FB
:104F18002DE9F04107460C4615461E4600F06EF88E
:104F280048B9B86803689F692A4633462146BC4693
:104F3800BDE8F0416047BDE8F08170470020704748
:104F4800814208B50ED0406803782A2B0CD04968F6
:104F58000B782A2B08BF0131FBF784FEB0FA80F0EA
:104F6800400908BD0120FCE70020FAE77FB50024CE
:104F78001023CDE90234036815469E6912686B4612
:104F8800CDE90044B0479DF8043003F00603062B32
:104F980003BF009B2B600120204604B070BD009821
:104FA80090420CBF06200120704710B50446FEF75A
:104FB80017FC2046082100F042F8204610BD2DE9D4
:104FC800F0411F46DDE90834DDF8188098450646AB
:104FD800154607D10799FFF7B3FF18B1657100208F
:104FE800BDE8F08139463046FFF7AAFF0028F6D021
:104FF8000123C4F800802571A371F0E738B5154680
:105008001C46FFF79DFF20B10823E36006232560B7
:10501800237138BD2DE9F04105460C4616461F465A
:10502800FFF78EFF48B9032F07D823683246294671
:1050380020465B69BDE8F0411847BDE8F08100F003
:10504800A8B810B500F180042046FCF755FF0346C8
:1050580030B92046FEF704FC034608B900F018F8FA
:1050680080220021184600F0D0FA803010BD704729
:10507800704710B504210446FFF7E1FF204610BD34
:1050880008B58047FCF708FF00F0A2F8FCF704FF1A
:1050980008B5FEF735FCFFF7F3FF08B58047FFF7C3
:1050A800F7FF08B5FEF734FCFFF7F7FF012810B546
:1050B80003D951F8140CFFF7E3FFA1F12803BFF35C
:1050C8005B8F53E8002F013A43E800200028F8D10D
:1050D800BFF35B8F5AB951F81C3C01F158040BB16E
:1050E800204698472046BDE81040FEF7DDBB10BDBE
:1050F80070B504460D461646FEF742FC4368013378
:105108004360324629462046FEF70AFC044601233E
:1051180044F8283B2046FBF749FD204600F058F8A4
:10512800FFF7B6FF10B5FEF72BFCD0E900420132BD
:1051380042604CB394F82020472A27D194F82120C4
:105148004E2A23D194F82220552A1FD194F82320DF
:10515800432A1BD194F82420432A17D194F82520F8
:105168002B2A13D194F826202B2A0FD194F8272024
:10517800012A0BD862695242626120342046FBF74B
:1051880039FD204600F024F8FFF782FF0022026074
:10519800F3E7FCF7CBBE0378472B17D143784E2BA8
:1051A80014D18378552B11D1C378432B0ED10379B1
:1051B800432B0BD143792B2B08D183792B2B05D18A
:1051C800C07901288CBF002001207047002070475B
:1051D80038B50446FEF7D4FB056802462046A4F11C
:1051E8002001FFF7D8FF28B90DB1FFF751FF116073
:1051F800284638BD54F80C3C002BB4BFC3F101035A
:10520800013344F80C3C53688D4203F1FF3353607B
:1052180020461CBF44F8105C1160656AFBF761F911
:10522800E6E710B5FEF7A8FB026801469AB102F15D
:1052380020042046FFF7AFFF28B908602046BDE8E4
:105248001040FBF74FB95369002B05DA013301D140
:1052580010690860536110BD013B02D113690B60EE
:10526800ECE7591CF6D1FFF713FF704730B5002360
:105278001A4610F8015B05F07F04944023432C067E
:1052880002F10702F5D40B6030BD30B500231A4691
:1052980010F8014B04F07F0595402B43250602F1D9
:1052A8000702F5D41F2A06D8640642BF4FF0FF3420
:1052B80004FA02F213430B6030BD50282DE9F34184
:1052C8000646884615461F4608D1D01C20F0030024
:1052D80050F8044B3C6002B0BDE8F08100F00F03C9
:1052E8000C2B2ED8DFE803F025071D25292D2D2DA1
:1052F8002D182125290001A92846FFF7B7FF019C91
:10530800002CE7D006F07003102B08BFA8464444D1
:10531800330648BF2468DDE701A92846FFF7B5FF33
:10532800EDE7284630F8024BEAE7284630F9024B09
:10533800E6E7284650F8044BE2E7284650F8084BC1
:10534800DEE7FCF7A9FD08B50346FF2B08460DD09C
:1053580003F07003302B0FD004D8202B08D005D9C8
:10536800FCF79AFD402B0BD0502BF9D1002008BD3B
:10537800BDE8084000F054B9BDE8084000F04DB958
:10538800BDE80840FBF724BF70B50C46014620462F
:1053980015461E46FFF7D7FF334601462A462046E4
:1053A800BDE87040FFF789BF73B50C461546064641
:1053B80008B1FBF70DFF2246286012F8011BFF29F0
:1053C8001CD02B1D3046FFF7DFFF0246104610F8B1
:1053D800013BFF2B14D010232B7501A9FFF746FFC3
:1053E800019B0344EB6010F8013B6B7501A9FFF7C3
:1053F8003DFF019B03442B6102B070BD6860E5E787
:105408002B750023EEE71FB503AB009300230A4674
:105418001946FBF76DF8039805B05DF804FB1EB458
:1054280000F03DF81EBCFBF7D3FB0378472B17D1E0
:1054380043784E2B14D18378552B11D1C378432B45
:105448000ED10379432B0BD143792B2B08D18379C8
:105458002B2B05D1C07901288CBF00200120704773
:105468000020704710B50446FEF78AFA0246204627
:10547800A4F12001FFF7D9FF60B154F8043C0133CF
:10548800012B44F8043C03D1936844F8083C91602C
:10549800012010BD9368002BF9D0FFF7F9FD10B576
:1054A800FEF76EFA826801460AB9FFF7F1FD02F1CC
:1054B80020042046FFF7B9FF40B1D369013BD3610F
:1054C80013B9906988609361204610BD8860FBE736
:1054D8000378472B17D143784E2B14D18378552B5B
:1054E80011D1C378432B0ED10379432B0BD14379C8
:1054F8002B2B08D183792B2B05D1C07901288CBFA0
:105508000020012070470020704710B5044648B1BC
:10551800FFF75EFE2046FFF7DBFF18B154F8140CC6
:10552800FFF7AEFDFFF7B4FD10B5024601448A420D
:10553800134603D01C780132002CF8D1181A10BD7C
:10554800F0B5C3F137070446FFB203F01F03104656
:10555800082BE6B233D0102B3ED06508A40844EAE5
:10556800817445EAC1752D194FEA910242EB510247
:10557800290941EA02716D1842EB1212290A41EA1F
:1055880002616D1842EB1222290C41EA02416D18A2
:1055980042EB1242AD1842F10002EC0844EA4274B0
:1055A800D10804EB8402A6EB4205EDB2092D0CD913
:1055B8000134A5F10A0541F10001EDB212E0E40859
:1055C80044EA417406F00705C908303554EA010277
:1055D80000F8015BBCD1F0BD240944EA017406F06F
:1055E8000F050909092D84BFED19EDB2EDE70A444D
:1055F800914200F1FF3300D1704710B511F8014B0B
:1056080003F8014F9142F9D110BD02440346934279
:1056180000D1704703F8011BF9E708B5FCF73CFC1B
:0856280008B5FFF7FAFF0000CE
:1056300079E3FF7F8408B101B0B0B000FF100D0125
:1056400004020608010100000000000008B1018109
:10565000B0B000840000000008B10181B0B0008447
:105660000000000045E3FF7FA908B100FFFF010033
:1056700008B10181B0B00084000000002DE3FF7F7D
:10568000B0AF1200FF10190110289C050000DA05C8
:1056900004DE0501F60534000001000000000000F2
:1056A00009E3FF7FB0AF0400FF1029011E24042886
:1056B0000160049201006A046E0188010A920100EF
:1056C0009A01040000AE01029201000100000000F6
:1056D0000000000008B10181B0B0008400000000AB
:0C56E00008B10181B0B00084000000009F
:1056EC00CCAAFF7F010000005CABFF7FB0A9028059
:1056FC00E0ABFF7FB0B0A88024ACFF7F01000000BE
:10570C002CACFF7FB0B0AA805EACFF7FAE71B280D4
:10571C0010ADFF7F010000000CADFF7FAB3F388068
:10572C005EADFF7F0100000068ADFF7FB0B0AA80C6
:10573C00A0ADFF7F0100000044AEFF7FAB0EB28036
:10574C00A8AEFF7FB0AF0680F0B0FF7F0100000075
:10575C00F4B0FF7FAC3F018058B3FF7F0100000025
:10576C00E4B7FF7F00840480F4B7FF7F01000000E2
:10577C00EEB7FF7FB0AD04802ABAFF7F00840480AF
:10578C004CBAFF7F44FFFF7F4EBAFF7F48FFFF7F7D
:10579C0058BAFF7F01000000D8DFFF7FB0B0A880AF
:1057AC0008E0FF7F01000000F4E1FF7FC4FEFF7FF3
:1057BC0024E5FF7FB0AC0180BCE5FF7FD8FEFF7F06
:1057CC0084E6FF7F0100000044F7FF7FB0B0AC809F
:1057DC0066F7FF7F0100000090F7FF7FB0AA0380FF
:1057EC00BAF7FF7F0100000094F8FF7F38FEFF7FBF
:1057FC009CF8FF7F010000009EF8FF7F44FEFF7FB6
:10580C009EF8FF7F48FEFF7FA0F8FF7FB0B0A88016
:10581C00DCF8FF7FB0B0AA8008F9FF7FB0B0A88099
:10582C006EF9FF7F01000000A4F9FF7F2CFEFF7FC3
:10583C00EEF9FF7F010000007EFAFF7FB0AC018023
:10584C0002FBFF7F20FEFF7F3CFBFF7FB0B0AA80F6
:10585C0054FBFF7FB0AA0180AAFBFF7F0084048069
:08586C00BAFBFF7F0100000000
:1058740000000000FC580008E913000800000000C4
:10588400F1360008000000000000000088590008FC
:1058940000000000145A0008000000001859000815
:1058A40000000000F859000800000000DC5900085E
:1058B40000000000C059000800000000A4590008BE
:1058C400000000006C590008000000005059000856
:1058D400000000003459000885470008000000005B
:1058E4002125000800000000BD1E00080000000083
:0858F400511F00080000000034
:1058FC004163000800000000E45C00084200002046
:10590C000000000069220008000000001563000878
:10591C00000000000000000040000020000000001B
:10592C00991F0008000000004E630008545D000839
:10593C00C05C000844000020E80400209D240008FE
:10594C00000000005C630008685D0008C05C000893
:10595C0046000020FC0400209D24000800000000EC
:10596C006A6300087C5D0008C05C000848000020E9
:10597C00100500209D24000800000000786300083A
:10598C00905D0008C05C00084A000020240500203F
:10599C009D2400080000000086630008A45D000838
:1059AC00C05C00084C000020380500209D24000835
:1059BC000000000094630008B85D0008C05C00089B
:1059CC004E0000204C0500209D2400080000000023
:1059DC00A2630008CC5D0008C05C000850000020E9
:1059EC00600500209D24000800000000B063000842
:1059FC00E05D0008C05C0008520000207405002027
:105A0C009D24000800000000BE630008F45D00083F
:105A1C00C05C000854000020880500209D2400086C
:045A2C000000000076
:105A3000000000002F470008000000002F4700086A
:105A4000000000002F470008000000002F4700085A
:105A5000000000002F470008000000002F4700084A
:105A60003F6300082D2000083D6300082D2000083A
:105A70003B6300082D200008396300082D20000832
:105A8000376300082D200008000000002F470008A1
:105A9000000000002F470008000000002F4700080A
:105AA000000000002F470008000000002F470008FA
:105AB000000000002F470008000000002F470008EA
:105AC000000000002F470008000000002F470008DA
